{
  "contractName": "MPC",
  "abi": [
    {
      "constant": true,
      "inputs": [],
      "name": "recipient",
      "outputs": [
        {
          "name": "",
          "type": "address"
        }
      ],
      "payable": false,
      "stateMutability": "view",
      "type": "function"
    },
    {
      "constant": true,
      "inputs": [],
      "name": "sender",
      "outputs": [
        {
          "name": "",
          "type": "address"
        }
      ],
      "payable": false,
      "stateMutability": "view",
      "type": "function"
    },
    {
      "inputs": [
        {
          "name": "recipientAddress",
          "type": "address"
        }
      ],
      "payable": true,
      "stateMutability": "payable",
      "type": "constructor"
    },
    {
      "constant": false,
      "inputs": [
        {
          "name": "amount",
          "type": "uint256"
        },
        {
          "name": "signature",
          "type": "bytes"
        }
      ],
      "name": "claimPayment",
      "outputs": [],
      "payable": false,
      "stateMutability": "nonpayable",
      "type": "function"
    }
  ],
  "bytecode": "0x60806040526040516020806107998339810180604052602081101561002357600080fd5b8101908080519060200190929190505050336000806101000a81548173ffffffffffffffffffffffffffffffffffffffff021916908373ffffffffffffffffffffffffffffffffffffffff16021790555080600160006101000a81548173ffffffffffffffffffffffffffffffffffffffff021916908373ffffffffffffffffffffffffffffffffffffffff160217905550506106d4806100c56000396000f3fe608060405234801561001057600080fd5b50600436106100415760003560e01c8063392aa3c31461004657806366d003ac1461010b57806367e404ce14610155575b600080fd5b6101096004803603604081101561005c57600080fd5b81019080803590602001909291908035906020019064010000000081111561008357600080fd5b82018360208201111561009557600080fd5b803590602001918460018302840111640100000000831117156100b757600080fd5b91908080601f016020809104026020016040519081016040528093929190818152602001838380828437600081840152601f19601f82011690508083019250505050505050919291929050505061019f565b005b61011361040d565b604051808273ffffffffffffffffffffffffffffffffffffffff1673ffffffffffffffffffffffffffffffffffffffff16815260200191505060405180910390f35b61015d610433565b604051808273ffffffffffffffffffffffffffffffffffffffff1673ffffffffffffffffffffffffffffffffffffffff16815260200191505060405180910390f35b600160009054906101000a900473ffffffffffffffffffffffffffffffffffffffff1673ffffffffffffffffffffffffffffffffffffffff163373ffffffffffffffffffffffffffffffffffffffff1614610262576040517f08c379a000000000000000000000000000000000000000000000000000000000815260040180806020018281038252600f8152602001807f4e6f74206120726563697069656e74000000000000000000000000000000000081525060200191505060405180910390fd5b61026c8282610458565b6102de576040517f08c379a00000000000000000000000000000000000000000000000000000000081526004018080602001828103825260118152602001807f5369676e617475726520556e6d6174636800000000000000000000000000000081525060200191505060405180910390fd5b813073ffffffffffffffffffffffffffffffffffffffff16311161036a576040517f08c379a00000000000000000000000000000000000000000000000000000000081526004018080602001828103825260128152602001807f496e73756666696369656e742046756e6473000000000000000000000000000081525060200191505060405180910390fd5b600160009054906101000a900473ffffffffffffffffffffffffffffffffffffffff1673ffffffffffffffffffffffffffffffffffffffff166108fc839081150290604051600060405180830381858888f193505050501580156103d2573d6000803e3d6000fd5b506000809054906101000a900473ffffffffffffffffffffffffffffffffffffffff1673ffffffffffffffffffffffffffffffffffffffff16ff5b600160009054906101000a900473ffffffffffffffffffffffffffffffffffffffff1681565b6000809054906101000a900473ffffffffffffffffffffffffffffffffffffffff1681565b6000806104c13085604051602001808373ffffffffffffffffffffffffffffffffffffffff1673ffffffffffffffffffffffffffffffffffffffff1660601b81526014018281526020019250505060405160208183030381529060405280519060200120610525565b90506000809054906101000a900473ffffffffffffffffffffffffffffffffffffffff1673ffffffffffffffffffffffffffffffffffffffff16610505828561057d565b73ffffffffffffffffffffffffffffffffffffffff161491505092915050565b60008160405160200180807f19457468657265756d205369676e6564204d6573736167653a0a333200000000815250601c01828152602001915050604051602081830303815290604052805190602001209050919050565b60008060008061058c85610604565b92509250925060018684848460405160008152602001604052604051808581526020018460ff1660ff1681526020018381526020018281526020019450505050506020604051602081039080840390855afa1580156105ef573d6000803e3d6000fd5b50505060206040510351935050505092915050565b60008060006041845114610680576040517f08c379a00000000000000000000000000000000000000000000000000000000081526004018080602001828103825260108152602001807f5369676e6174757265206c656e6774680000000000000000000000000000000081525060200191505060405180910390fd5b6020840151915060408401519050606084015160001a9250828282925092509250919390925056fea165627a7a72305820992d5da2ec2e731da6d89cdf4388c8f5609800b79fb79178a3b65824f7bd60200029",
  "source": "pragma solidity >=0.4.24 <0.7.0;\r\n\r\ncontract MPC {\r\n    address payable public sender;\r\n    address payable public recipient;\r\n    constructor (address payable recipientAddress)\r\n        public\r\n        payable\r\n    {\r\n        sender = msg.sender;\r\n        recipient = recipientAddress;\r\n    }\r\n\r\n    function isValidSignature(uint256 amount, bytes memory signature)\r\n        internal\r\n        view\r\n        returns (bool)\r\n    {\r\n        bytes32 message = prefixed(keccak256(abi.encodePacked(this, amount)));\r\n        return recoverSigner(message, signature) == sender;\r\n    }\r\n\r\n    function claimPayment(uint256 amount, bytes memory signature) public{\r\n        require(msg.sender == recipient,'Not a recipient');\r\n        require(isValidSignature(amount, signature),'Signature Unmatch');\r\n        require(address(this).balance > amount,'Insufficient Funds');\r\n        recipient.transfer(amount);\r\n        selfdestruct(sender);\r\n    }\r\n\r\n    function splitSignature(bytes memory sig)\r\n        internal\r\n        pure\r\n        returns (uint8 v, bytes32 r, bytes32 s)\r\n    {\r\n        require(sig.length == 65,'Signature length');\r\n        assembly{\r\n            r := mload(add(sig, 32))\r\n            s := mload(add(sig, 64))\r\n            v := byte(0, mload(add(sig, 96)))\r\n        }\r\n        return (v, r, s);\r\n    }\r\n\r\n    function recoverSigner(bytes32 message, bytes memory sig)\r\n        internal\r\n        pure\r\n        returns (address)\r\n    {\r\n        (uint8 v, bytes32 r, bytes32 s) = splitSignature(sig);\r\n        return ecrecover(message, v, r, s);\r\n    }\r\n\r\n    function prefixed(bytes32 hash) internal pure returns (bytes32){\r\n        return keccak256(abi.encodePacked(\"\\x19Ethereum Signed Message:\\n32\", hash));\r\n    }\r\n}",
  "sourcePath": "/Users/spacejin/Documents/Study/BlockChain/BlockChainInAction/Ch.8/MPC-Dapp-Infura/Organizer/MPC-contract/contracts/MPC.sol",
  "compiler": {
    "name": "solc",
    "version": "0.5.8+commit.23d335f2.Emscripten.clang"
  },
  "schemaVersion": "3.4.7",
  "updatedAt": "2022-06-01T05:59:51.198Z",
  "devdoc": {
    "methods": {}
  },
  "userdoc": {
    "methods": {}
  }
}